:0300F900010A00F9
:0400DD007F647E00BE
:0400E100EF4E60136B
:1000E5007508027509EFD509FDD508FAEF1F70EC03
:0100F5001EEC
:0300F60080E9227C
:10008F0075A0FE20B0251200DD30B0FD1200DD0599
:10009F000AE50AC394084003E4F50AAF0AA80774F7
:1000AF0001088002C333D8FCF4F5A020B1D51200AB
:1000BF00DD30B1FD1200DD750A00150AAF0AA80781
:0E00CF007401088002C333D8FCF4F5A080B59C
:03000000020003F8
:0C000300787FE4F6D8FD75810A02004AFF
:10000F0002008FE493A3F8E493A34003F68001F278
:10001F0008DFF48029E493A3F85407240CC8C333F2
:10002F00C4540F4420C8834004F456800146F6DFC1
:10003F00E4800B01020408102040809000F9E47E58
:10004F00019360BCA3FF543F30E509541FFEE493B6
:10005F00A360010ECF54C025E060A840B8E493A37D
:10006F00FAE493A3F8E493A3C8C582C8CAC583CAA8
:10007F00F0A3C8C582C8CAC583CADFE9DEE780BE60
:0100FC000003
:00000001FF
