:0602B00048454C4C6F00B4
:1000DF001202737B417D037F021202A67BFF7A021D
:1000EF0079B07D037F011201FE750C027B427A000D
:1000FF007D097F01120224750C027BA87AFF7D0C0B
:10010F007F011200977500027BA57A007D017F02A7
:05011F0012000080FE4B
:10025E00EF1FAC0670011E4C600A7D027CEFDCFEC7
:04026E00DDFC80EC47
:010272002269
:10024600C2A6C2A58F80D2A77F017E0012025EC21F
:08025600A77F017E0002025E99
:1001D200CFCDCFCECCCE1200427C007D0A1200429F
:0401E200ED2430FFD9
:1001E600D2A6C2A58F80D2A77F017E0012025EC270
:0801F600A77F017E0002025EFA
:100273007F381202467F0C1202467F061202467F27
:04028300010202462C
:100287008D10E510BF0103148002243F4480FF1244
:03029700024622FA
:0A02A6008B08120287AF080201E680
:0601FE008B088A09890A42
:10020400120287E4F50BAB08AA09A90A850B8275CB
:0F0214008300120003FF60071201E6050B80E76D
:0102230022B8
:0B01A0007F0A24FFFDE434FFFC7E001A
:0801AB008E108F118C128D13D0
:1001B3007F017E00E4FBEBC39513E5126480F874C2
:0E01C3008098500AAC10AD111200300B80E88D
:0101D100220B
:040224008A0A8B0BAC
:10022800120287850C0DE50DD394004010E50D12E0
:0D02380001A0AC0AAD0B1201D2150D80E93A
:010245002296
:040097008A0A8B0B3B
:10009B00120287C3E50A64809480400D7F2B120106
:1000AB00E6850A0E850B0F80107F2D1201E6C3E447
:1000BB00950BF50FE4950AF50E850C0DE50DD39414
:1000CB00004010E50D1201A0AC0EAD0F1201D215C0
:0300DB000D80E9AC
:0100DE0022FF
:040124008A168B1795
:10012800120287851819E519D39400402EE5197F26
:10013800101201A2AC16AD17CFCDCFCECCCE120087
:1001480042EF540FF51AC3940AE51A50042430807C
:0B015800022437FF1201E6151980CBCE
:010163002279
:040164008A1D8B1E47
:10016800120287851F20E520D39400402AE5202429
:10017800FFFDE434FFFC7F027E001201ABAC1DAD35
:100188001ECFCDCFCECCCE120042EF54012430FF8B
:070198001201E6152080CFE3
:01019F00223D
:0300000002029A5F
:0C029A00787FE4F6D8FD7581200200DFBB
:10000300BB010CE58229F582E5833AF583E02250B2
:1000130006E92582F8E622BBFE06E92582F8E222FC
:0D002300E58229F582E5833AF583E4932216
:10003000EF8DF0A4A8F0CF8CF0A428CE8DF0A42EE4
:02004000FE229E
:10004200BC000BBE0029EF8DF084FFADF022E4CCA2
:10005200F875F008EF2FFFEE33FEEC33FCEE9DEC6B
:10006200984005FCEE9DFE0FD5F0E9E4CEFD22EDB1
:10007200F8F5F0EE8420D21CFEADF075F008EF2FFB
:10008200FFED33FD4007985006D5F0F222C398FDEC
:050092000FD5F0EA2289
:00000001FF
