:0400030002080000EF
:10014C0075A0FE12016C12009A8F0AE50A60F7B4D2
:10015C0001F4050BE50BC3940240EBE4F50B80E6D0
:03000B000200FBF5
:0B00FB00C0E0C0D075D000C000C007FE
:10010600758CFC0509E50970020508C394F4E50839
:1001160094014029750800750900E50B700DAFA024
:100126007801EF08800123D8FDF5A0E50BB4010D99
:0D013600AFA07801EF08800103D8FDF5A00F
:09014300D007D000D0D0D0E0328A
:10016C005389F0438901758A18758CFCC28DD28C29
:07017C00D2A9D2AFC2B922E3
:10009A00E4F50C20B1137F14FE12018330B1FD7F09
:1000AA00147E00120183750C0120B0147F147E00A7
:1000BA0012018330B1FD7F147E00120183750C0298
:1000CA0020B2147F147E0012018330B1FD7F147EAA
:1000DA0000120183750C0320B3147F147E001201F1
:1000EA008330B1FD7F147E00120183750C04AF0CBE
:0100FA0022E3
:10018300EF1FAC0670011E4C600A7D027CEFDCFEA3
:04019300DDFC80EC23
:010197002245
:0300000002000EED
:0C000E00787FE4F6D8FD75810C020055E7
:10001A0002014CE493A3F8E493A34003F68001F2AF
:10002A0008DFF48029E493A3F85407240CC8C333E7
:10003A00C4540F4420C8834004F456800146F6DFB6
:10004A00E4800B0102040810204080900003E47E43
:10005A00019360BCA3FF543F30E509541FFEE493AB
:10006A00A360010ECF54C025E060A840B8E493A372
:10007A00FAE493A3F8E493A3C8C582C8CAC583CA9D
:10008A00F0A3C8C582C8CAC583CADFE9DEE780BE55
:0100070000F8
:00000001FF
