:09038300436C6F636B3A003A0011
:0400030002180000DF
:10012E0012034C12030A7BFF7A0379837D017F0150
:10013E001202AC7BFF7A03798A7D037F021202AC36
:10014E007BFF7A03798A7D067F021202ACE51BFBE8
:10015E007A00750C027D017F021202EDE51CFB7A1E
:10016E0000750C027D047F021202EDE51AFB7A0087
:0C017E00750C027D077F021202ED80D19B
:03000B0002018A65
:04018A00C0E0C0D041
:10018E00758CFC0519E51970020518C394E8E5187D
:10019E0094034027751800751900051AE51A943C4A
:1001AE004019751A00051CE51C943C400E751C0088
:0B01BE00051BE51B94184003751B0097
:0501C900D0D0D0E032AF
:10033700EF1FAC0670011E4C600A7D027CEFDCFEED
:04034700DDFC80EC6D
:01034B00228F
:06036000C2A58F80D2A7A8
:080366007F027EEFDEFEDFFCEA
:01036E00226C
:0A036F00C2A6120360C2A7020366D3
:1002CF00CFCDCFCECCCE12004D7C007D0A12004D8B
:0402DF00ED2430FFDB
:0A02E300D2A6120360C2A702036650
:10032100AE07BE0104ED148006BE0209ED243F4470
:0603310080FF12036F22A1
:10034C007F3812036F7F0C12036F7F0612036F7FCF
:04035C000102036F28
:0A037900AC03120321AF040202E3FB
:0602AC008B088A09890A93
:1002B200120321E4FDAB08AA09A90A8D8275830005
:0C02C20012000EFF60061202E30D80E93E
:0102CE00220D
:0C0279007F0AEA24FFFDE434FFFC7E0055
:080285008E0D8F0E8C0F8D1001
:10028D007F017E00E4FBEBC39510E50F6480F874ED
:0E029D008098500AAC0DAD0E12003B0B80E8AD
:0102AB002230
:0402ED008A0A8B0BE3
:1002F100120321AA0CEAD39400400D120279AC0A30
:08030100AD0B1202CF1A80EDD2
:0103090022D1
:1001CE00120321C3EA64809480400B7F2B1202E35A
:1001DE008A168B17800E7F2D1202E3C3E49BF51750
:1001EE00E49AF516AA15EAD39400400D120279ACE2
:0901FE0016AD171202CF1A80EDB4
:0102070022D4
:040208008A1F8B209E
:10020C00120321AA21EAD3940040297F1012027B09
:10021C00AC1FAD20CFCDCFCECCCE12004DEF540FB6
:10022C00FEC3940AEE5004243080022437FF1202DD
:04023C00E31A80D170
:01024000229B
:040241008A248B255B
:10024500120321AA26EAD394004028EA24FFFDE4FC
:1002550034FFFC7F027E00120285AC24AD25CFCD94
:10026500CFCECCCE12004DEF54012430FF1202E365
:030275001A80D21A
:010278002263
:10030A005389F0438901758A18758CFCC28DD28C89
:07031A00D2A9D2AFC2B92243
:030000000200A259
:0C00A200787FE4F6D8FD7581260200E9A5
:10000E00BB010CE58229F582E5833AF583E02250A7
:10001E0006E92582F8E622BBFE06E92582F8E222F1
:0D002E00E58229F582E5833AF583E493220B
:10003B00EF8DF0A4A8F0CF8CF0A428CE8DF0A42ED9
:02004B00FE2293
:10004D00BC000BBE0029EF8DF084FFADF022E4CC97
:10005D00F875F008EF2FFFEE33FEEC33FCEE9DEC60
:10006D00984005FCEE9DFE0FD5F0E9E4CEFD22EDA6
:10007D00F8F5F0EE8420D21CFEADF075F008EF2FF0
:10008D00FFED33FD4007985006D5F0F222C398FDE1
:05009D000FD5F0EA227E
:1000AE0002012EE493A3F8E493A34003F68001F239
:1000BE0008DFF48029E493A3F85407240CC8C33353
:1000CE00C4540F4420C8834004F456800146F6DF22
:1000DE00E4800B0102040810204080900003E47EAF
:1000EE00019360BCA3FF543F30E509541FFEE49317
:1000FE00A360010ECF54C025E060A840B8E493A3DE
:10010E00FAE493A3F8E493A3C8C582C8CAC583CA08
:10011E00F0A3C8C582C8CAC583CADFE9DEE780BEC0
:0100070000F8
:00000001FF
