:02003300AD0717
:10003500E4FB7E007480A803088006CEA2E713CEF9
:1000450013D8F8FFEDF582EF558224FF92B4D2B6AE
:0A005500C2B60BBB08DCD2B5C2B581
:01005F00227E
:10006000AE05AC07AF06120033AF04A807748008D2
:100070008002C313D8FCF4F5807F017E0012008457
:040080007580FF2266
:10000300C2B6C2B57DF07F071200607D81E4FF12A6
:1000130000607D407F011200607D207F021200603E
:100023007D107F031200607D087F0412006080DB77
:10008400EF1FAC0670011E4C600A7D027CEFDCFEA3
:04009400DDFC80EC23
:010098002245
:0300000002009962
:0C009900787FE4F6D8FD758107020003B3
:00000001FF
