:100175001202267525007526020526E5267002055C
:10018500257FE87E03120211750C03AB26AA257D97
:08019500017F011201DE80E18F
:06023A00C2A58F80D2A7CF
:080240007F027EEFDEFEDFFC11
:010248002293
:0A025500C2A612023AC2A70202403C
:1001C000CFCDCFCECCCE1200427C007D0A120042B1
:0401D000ED2430FFEB
:0A01D400D2A612023AC2A7020240AE
:1001FB00AE07BE0104ED148006BE0209ED243F4498
:06020B0080FF12025522E3
:100226007F381202557F0C1202557F061202557F47
:04023600010202556A
:0A025F00AC031201FBAF040201D44E
:06019D008B228A23892455
:1001A3001201FBE4FDAB22AA23A9248D82758300EF
:0C01B300120003FF60061201D40D80E969
:0101BF00221D
:0C0142007F0AEA24FFFDE434FFFC7E008D
:08014E008E0D8F0E8C0F8D1039
:100156007F017E00E4FBEBC39510E50F6480F87425
:0E0166008098500AAC0DAD0E1200300B80E8F0
:010174002268
:0401DE008A0A8B0BF3
:1001E2001201FBAA0CEAD39400400D120142AC0AA0
:0801F200AD0B1201C01A80EDF3
:0101FA0022E2
:100097001201FBC3EA64809480400B7F2B1201D4CA
:1000A7008A168B17800E7F2D1201D4C3E49BF51798
:1000B700E49AF516AA15EAD39400400D120142AC52
:0900C70016AD171201C01A80EDFC
:0100D000220D
:0400D1008A1A8B1BE1
:1000D5001201FBAA1CEAD3940040297F10120144A7
:1000E500AC1AAD1BCFCDCFCECCCE120042EF540F04
:1000F500FEC3940AEE5004243080022437FF120117
:04010500D41A80D1B7
:0101090022D3
:04010A008A1F8B209D
:10010E001201FBAA21EAD394004028EA24FFFDE461
:10011E0034FFFC7F027E0012014EAC1FAD20CFCD0E
:10012E00CFCECCCE120042EF54012430FF1201D4B8
:03013E001A80D252
:01014100229B
:10021100EF1FAC0670011E4C600A7D027CEFDCFE14
:04022100DDFC80EC94
:0102250022B6
:03000000020249B0
:0C024900787FE4F6D8FD7581260201756F
:10000300BB010CE58229F582E5833AF583E02250B2
:1000130006E92582F8E622BBFE06E92582F8E222FC
:0D002300E58229F582E5833AF583E4932216
:10003000EF8DF0A4A8F0CF8CF0A428CE8DF0A42EE4
:02004000FE229E
:10004200BC000BBE0029EF8DF084FFADF022E4CCA2
:10005200F875F008EF2FFFEE33FEEC33FCEE9DEC6B
:10006200984005FCEE9DFE0FD5F0E9E4CEFD22EDB1
:10007200F8F5F0EE8420D21CFEADF075F008EF2FFB
:10008200FFED33FD4007985006D5F0F222C398FDEC
:050092000FD5F0EA2289
:00000001FF
