:1009220020200020202D20202D20200020203A20D1
:05093200203A20200026
:04096F00021F000063
:1005B100120498E518FB3395E0FA750C027D017F72
:1005C100011208D8E519FB3395E0FA750C027D0498
:1005D1007F011208D8E51AFB3395E0FA750C027D0C
:1005E100077F011208D8E51BFB3395E0FA750C0271
:1005F1007D017F021208D8E51CFB3395E0FA750CEA
:10060100027D047F021208D8E51DFB3395E0FA75DF
:090611000C027D077F020208D8EB
:10000E00E524B4020C0521E521D394054003E4F563
:10001E0021E524640360030200E974182521F80623
:10002E00D3E518648094E34003E4F518D3E519642E
:10003E0080948C4003751901E51964016023E5195C
:10004E006403601DE51964056017E5196407601106
:10005E00E5196408600BE519640A6005E519B40C2E
:10006E000BD3E51A6480949F404D8048E5196404D3
:10007E006011E5196406600BE51964096005E51960
:10008E00B40B0BD3E51A6480949E402B8026E519A1
:10009E00B40224E51875F0041203E2AFF0EF700B12
:1000AE00D3E51A6480949D400E8009D3E51A6480CE
:1000BE00949C4003751A01D3E51B6480949740030A
:1000CE00E4F51BD3E51C648094BB4003E4F51CD31C
:1000DE00E51D648094BB4003E4F51DE524640460D3
:1000EE00030201E474182521F816C3E51864809400
:1000FE00805003751863C3E51964809481500375AD
:10010E00190CE51964016023E5196403601DE519F6
:10011E0064056017E51964076011E5196408600B42
:10012E00E519640A6005E519B40C17C3E51A648075
:10013E0094815003751A1FD3E51A6480949F407200
:10014E00806DE51964046011E5196406600BE5190C
:10015E0064096005E519B40B17C3E51A6480948130
:10016E005003751A1ED3E51A6480949E4044803F56
:10017E00E5196402703CE51875F0041203E2AFF065
:10018E00EF7017C3E51A648094815003751A1DD35E
:10019E00E51A6480949D401A8015C3E51A64809414
:1001AE00815003751A1CD3E51A6480949C40037524
:1001BE001A01C3E51B648094805003751B17C3E5B9
:1001CE001C648094805003751C3BC3E51D648094B1
:1001DE00805003751D3BE5217014E523B4010F7BA0
:1001EE00FF7A0979227D017F011208978011E518A7
:1001FE00FB3395E0FA750C027D017F011208D8E5FC
:10020E00217014E523B4010F7BFF7A0979227D0456
:10021E007F011208978011E519FB3395E0FA750CF2
:10022E00027D047F011208D8E5217014E523B40184
:10023E000F7BFF7A0979227D077F011208978011C3
:10024E00E51AFB3395E0FA750C027D077F01120863
:10025E00D8E5217014E523B4010F7BFF7A097922CA
:10026E007D017F021208978011E51BFB3395E0FAA2
:10027E00750C027D017F021208D8E5217014E5236A
:10028E00B4010F7BFF7A0979227D047F0212089751
:10029E008011E51CFB3395E0FA750C027D047F029C
:1002AE001208D8E5217014E523B4010F7BFF7A09FB
:1002BE0079227D077F021208978011E51DFB339589
:1002CE00E0FA750C027D077F021208D8E521FB7A51
:1002DE0000750C027D0A7F021208D8E523FB7A0016
:0A02EE00750C027D0D7F020208D896
:10067B0012094C1200031200007BFF7A0979257DC9
:10068B00017F011208977BFF7A09792E7D017F028A
:10069B001208971202F812061A8F24E524B40114DB
:1006AB00E5227005752201800BE522B40106E4F505
:1006BB00221202F8E5221460080470081205B180BA
:0D06CB000312000E7F327E0012093780C935
:03000B0002082EBA
:09082E00C0E0C0D075D000C00785
:10083700758C180520E5207002051FC394F4E51F89
:1008470094014012751F00752000E52370047F0195
:0608570080027F008F23E8
:07085D00D007D0D0D0E0323B
:06096000C2A58F80D2A7A2
:080966007F027EEFDEFEDFFCE4
:01096E002266
:0A097D00C2A6120960C2A7020966B3
:1008BA00CFCDCFCECCCE1204437C007D0A120443A6
:0408CA00ED2430FFEA
:0A08CE00D2A6120960C2A702096653
:10090C00AE07BE0104ED148006BE0209ED243F447F
:06091C0080FF12097D229C
:10094C007F3812097D7F0C12097D7F0612097D7F8D
:04095C000102097D0E
:0A098700AC0312090CAF040208CE05
:060897008B088A09890AA2
:10089D0012090CE4FDAB08AA09A90A8D8275830023
:0C08AD00120404FF60061208CE0D80E962
:0108B900221C
:0C0864007F0AEA24FFFDE434FFFC7E0064
:080870008E0D8F0E8C0F8D1010
:100878007F017E00E4FBEBC39510E50F6480F874FC
:0E0888008098500AAC0DAD0E1204310B80E8C2
:01089600223F
:0408D8008A0A8B0BF2
:1008DC0012090CAA0CEAD39400400D120864AC0A5D
:0808EC00AD0B1208BA1A80EDF1
:0108F40022E1
:1007830012090CC3EA64809480400B7F2B1208CEBD
:100793008A168B17800E7F2D1208CEC3E49BF517A4
:1007A300E49AF516AA15EAD39400400D120864AC36
:0907B30016AD171208BA1A80ED08
:0107BC00221A
:0407BD008A278B28D4
:1007C10012090CAA29EAD3940040297F1012086665
:1007D100AC27AD28CFCDCFCECCCE120443EF540FF2
:1007E100FEC3940AEE5004243080022437FF12081D
:0407F100CE1A80D1CB
:0107F50022E1
:0407F6008A2C8B2D91
:1007FA0012090CAA2EEAD394004028EA24FFFDE449
:10080A0034FFFC7F027E00120870AC2CAD2DCFCDD8
:10081A00CFCECCCE120443EF54012430FF1208CEBF
:03082A001A80D25F
:01082D0022A8
:090973000718130B100C3B3706AA
:05000300C2B5C2B622E7
:0606D80025F0FDEC3EFCE4
:0606DE008C088D09AB073A
:1006E400D2B5E4FD7E007401A805088005C333CEAD
:1006F40033CED8F9FFEBF582EF558224FF92B4D2C2
:10070400B6C2B60DBD08DDE4FD7E007401A805087F
:100714008005C333CE33CED8F9FFE5085EFEE50984
:100724005F4E24FF92B4D2B6C2B60DBD08DBC2B58B
:0107340022A2
:02073500AD070E
:10073700E4F9430501D2B5FB7E007401A8030880E4
:1007470005C333CE33CED8F9FFEDF582EF558224BA
:10075700FF92B4C2B6D2B60BBB08DDE4FBD2B6C279
:10076700B630B40DA8037401088002C333D8FC4225
:0B077700010BBB08E8C2B5C2B4AF0123
:010782002254
:1002F800E4FDFC7F8E1206DEE51875F00A8475F0C1
:1003080010A4FFAEF0E51875F00A84EF7F8C120692
:10031800D8E51875F00A8475F010A4FFAEF0E51959
:1003280075F00A847C00EF7F881206D8E51875F00E
:100338000A8475F010A4FFAEF0E51A75F00A847C03
:1003480000EF25F0FDEC3EFC7F861206DEE5187511
:10035800F00A8475F010A4FFAEF0E51B75F00A846E
:100368007C00EF25F0FDEC3EFC7F841206DEE518EC
:1003780075F00A8475F010A4FFAEF0E51C75F00A5C
:10038800847C00EF25F0FDEC3EFC7F821206DEE562
:100398001875F00A8475F010A4FFAEF0E51D75F02D
:1003A8000A847C00EF25F0FDEC3EFC7F801206DE1F
:1003B800E51875F00A8475F010A4FFAEF0E51E7517
:1003C800F00A847C00EF25F0FDEC3EFC7F8A1206E3
:0A03D800DE7D807C007F8E0206DED1
:100498007F8C120735EFC4540F75F00AA4FEEF5491
:1004A8000F2EF5187F88120735EFC4540F75F00A20
:1004B800A4FEEF540F2EF5197F86120735EFC454AA
:1004C8000F75F00AA4FEEF540F2EF51A7F84120759
:1004D80035EFC4540F75F00AA4FEEF540F2EF51B28
:1004E8007F82120735EFC4540F75F00AA4FEEF544B
:1004F8000F2EF51C7F80120735EFC4540F75F00AD4
:10050800A4FEEF540F2EF51D7F8A120735EFC45451
:0C0518000F75F00AA4FEEF540F2EF51E24
:0105240022B4
:10093700EF1FAC0670011E4C600A7D027CEFDCFEE7
:04094700DDFC80EC67
:01094B002289
:1008F5005389F0438901758A18758CFCC28DD28C99
:07090500D2A9D2AFC2B92252
:10061A00E4F50820B1137F14FE12093730B1FD7FCB
:10062A00147E0012093775080120B0147F147E0069
:10063A0012093730B1FD7F147E001209377508029E
:10064A0020B2147F147E0012093730B1FD7F147E68
:10065A000012093775080320B3147F147E001209AB
:10066A003730B1FD7F147E00120937750804AF08D0
:01067A00225D
:03000000020525D1
:0C052500787FE4F6D8FD75812E02056C8D
:1003E200C2D530F707B2D563F0FF05F030E70CB2A3
:1003F200D5F4048463F0FF05F080018430D502F463
:020402000422D2
:10040400BB010CE58229F582E5833AF583E02250AD
:1004140006E92582F8E622BBFE06E92582F8E222F7
:0D042400E58229F582E5833AF583E4932211
:10043100EF8DF0A4A8F0CF8CF0A428CE8DF0A42EDF
:02044100FE2299
:10044300BC000BBE0029EF8DF084FFADF022E4CC9D
:10045300F875F008EF2FFFEE33FEEC33FCEE9DEC66
:10046300984005FCEE9DFE0FD5F0E9E4CEFD22EDAC
:10047300F8F5F0EE8420D21CFEADF075F008EF2FF6
:10048300FFED33FD4007985006D5F0F222C398FDE7
:050493000FD5F0EA2284
:1005310002067BE493A3F8E493A34003F68001F25F
:1005410008DFF48029E493A3F85407240CC8C333CB
:10055100C4540F4420C8834004F456800146F6DF9A
:10056100E4800B010204081020408090096FE47EB2
:10057100019360BCA3FF543F30E509541FFEE4938F
:10058100A360010ECF54C025E060A840B8E493A356
:10059100FAE493A3F8E493A3C8C582C8CAC583CA81
:1005A100F0A3C8C582C8CAC583CADFE9DEE780BE39
:01097C00007A
:00000001FF
