:1005490020202D20202D20200020203A20203A2074
:02055900200080
:10029A001205351205887BFF7A0579497D017F01B0
:1002AA001204AC7BFF7A0579527D017F021204ACFD
:1002BA00120003120181E518FB7A00750C027D0118
:1002CA007F011204EDE519FB7A00750C027D047FAB
:1002DA00011204EDE51AFB7A00750C027D077F0115
:1002EA001204EDE51BFB7A00750C027D017F0212F8
:1002FA0004EDE51CFB7A00750C027D047F021204F2
:10030A00EDE51DFB7A00750C027D077F021204EDF4
:09031A007F327E00120520809A5A
:06055B00C2A58F80D2A7AB
:080561007F027EEFDEFEDFFCED
:01056900226F
:0A056A00C2A612055BC2A7020561DC
:1004CF00CFCDCFCECCCE12012C7C007D0A12012CC9
:0404DF00ED2430FFD9
:0A04E300D2A612055BC2A702056154
:10050A00AE07BE0104ED148006BE0209ED243F4485
:06051A0080FF12056A22B9
:100535007F3812056A7F0C12056A7F0612056A7FED
:040545000102056A40
:0A057400AC0312050AAF040204E311
:0604AC008B088A09890A91
:1004B20012050AE4FDAB08AA09A90A8D8275830018
:0C04C2001200EDFF60061204E30D80E95B
:0104CE00220B
:0C0479007F0AEA24FFFDE434FFFC7E0053
:080485008E0D8F0E8C0F8D10FF
:10048D007F017E00E4FBEBC39510E50F6480F874EB
:0E049D008098500AAC0DAD0E12011A0B80E8CB
:0104AB00222E
:0404ED008A0A8B0BE1
:1004F10012050AAA0CEAD39400400D120479AC0A41
:08050100AD0B1204CF1A80EDCE
:0105090022CF
:1003CE0012050AC3EA64809480400B7F2B1204E36B
:1003DE008A168B17800E7F2D1204E3C3E49BF5174C
:1003EE00E49AF516AA15EAD39400400D120479ACDE
:0903FE0016AD171204CF1A80EDB0
:0104070022D2
:040408008A218B2298
:10040C0012050AAA23EAD3940040297F1012047B18
:10041C00AC21AD22CFCDCFCECCCE12012CEF540FD0
:10042C00FEC3940AEE5004243080022437FF1204D9
:04043C00E31A80D16E
:010440002299
:040441008A268B2755
:1004450012050AAA28EAD394004028EA24FFFDE40D
:1004550034FFFC7F027E00120485AC26AD27CFCD8C
:10046500CFCECCCE12012CEF54012430FF1204E381
:030475001A80D218
:010478002261
:09057E000718130B100C3B3706A3
:05058800C2B5C2B6225D
:0603230025F0FDEC3EFC9C
:060329008C088D09AB07F2
:10032F00D2B5E4FD7E007401A805088005C333CE65
:10033F0033CED8F9FFEBF582EF558224FF92B4D27A
:10034F00B6C2B60DBD08DDE4FD7E007401A8050838
:10035F008005C333CE33CED8F9FFE5085EFEE5093D
:10036F005F4E24FF92B4D2B6C2B60DBD08DBC2B544
:01037F00225B
:02038000AD07C7
:10038200E4F9430501D2B5FB7E007401A80308809D
:1003920005C333CE33CED8F9FFEDF582EF55822473
:1003A200FF92B4C2B6D2B60BBB08DDE4FBD2B6C232
:1003B200B630B40DA8037401088002C333D8FC42DE
:0B03C200010BBB08E8C2B5C2B4AF01DC
:0103CD00220D
:10000300E4FDFC7F8E120329E51875F00A8475F070
:1000130010A4FFAEF0E51875F00A84EF7F8C12038D
:1000230023E51875F00A8475F010A4FFAEF0E51906
:1000330075F00A847C00EF7F88120323E51875F0BE
:100043000A8475F010A4FFAEF0E51A75F00A847CFB
:1000530000EF25F0FDEC3EFC7F86120329E51875C1
:10006300F00A8475F010A4FFAEF0E51B75F00A8466
:100073007C00EF25F0FDEC3EFC7F84120329E5189C
:1000830075F00A8475F010A4FFAEF0E51C75F00A54
:10009300847C00EF25F0FDEC3EFC7F82120329E512
:1000A3001875F00A8475F010A4FFAEF0E51D75F025
:1000B3000A847C00EF25F0FDEC3EFC7F80120329CF
:1000C300E51875F00A8475F010A4FFAEF0E51E750F
:1000D300F00A847C00EF25F0FDEC3EFC7F8A1203DE
:0A00E300297D807C007F8E02032936
:100181007F8C120380EFC4540F75F00AA4FEEF5464
:100191000F2EF5187F88120380EFC4540F75F00AF3
:1001A100A4FEEF540F2EF5197F86120380EFC4547D
:1001B1000F75F00AA4FEEF540F2EF51A7F84120377
:1001C10080EFC4540F75F00AA4FEEF540F2EF51BF7
:1001D1007F82120380EFC4540F75F00AA4FEEF541E
:1001E1000F2EF51C7F80120380EFC4540F75F00AA7
:1001F100A4FEEF540F2EF51D7F8A120380EFC45425
:0C0201000F75F00AA4FEEF540F2EF51E3E
:01020D0022CE
:10052000EF1FAC0670011E4C600A7D027CEFDCFE02
:04053000DDFC80EC82
:0105340022A4
:0300000002020EEB
:0C020E00787FE4F6D8FD758128020255C7
:1000ED00BB010CE58229F582E5833AF583E02250C8
:1000FD0006E92582F8E622BBFE06E92582F8E22212
:0D010D00E58229F582E5833AF583E493222B
:10011A00EF8DF0A4A8F0CF8CF0A428CE8DF0A42EF9
:02012A00FE22B3
:10012C00BC000BBE0029EF8DF084FFADF022E4CCB7
:10013C00F875F008EF2FFFEE33FEEC33FCEE9DEC80
:10014C00984005FCEE9DFE0FD5F0E9E4CEFD22EDC6
:10015C00F8F5F0EE8420D21CFEADF075F008EF2F10
:10016C00FFED33FD4007985006D5F0F222C398FD01
:05017C000FD5F0EA229E
:10021A0002029AE493A3F8E493A34003F68001F25E
:10022A0008DFF48029E493A3F85407240CC8C333E5
:10023A00C4540F4420C8834004F456800146F6DFB4
:10024A00E4800B010204081020408090057EE47EC1
:10025A00019360BCA3FF543F30E509541FFEE493A9
:10026A00A360010ECF54C025E060A840B8E493A370
:10027A00FAE493A3F8E493A3C8C582C8CAC583CA9B
:10028A00F0A3C8C582C8CAC583CADFE9DEE780BE53
:010587000073
:00000001FF
