:0F02DC00012700021E0000022000000222000085
:10000E001203B312041D8F28E528B4010CE52770E6
:10001E00047F0180027F008F27E528B40207E4F5F4
:10002E0025F524F526E52864037033E525FD7C00CF
:10003E00E4FF1203567F057E001203E0E524FD7CEB
:10004E00007F011203567F057E001203E0E526FDB8
:10005E007C007F021203567F057E001203E0E52826
:10006E00B40415E4FF1202AC8F257F011202AC8F8F
:10007E00247F021202AC8F26E52575F00A84FD7CE2
:10008E00007F0112040BE52575F00A84E5F0FD7C76
:10009E00007F0212040B7D0B7C007F0312040BE524
:1000AE002475F00A84FD7C007F0412040BE5247590
:1000BE00F00A84E5F0FD7C007F0512040B7D0B7CBD
:1000CE00007F0612040BE52675F00A84FD7C007F86
:1000DE000712040BE52675F00A84E5F0FD7C007F1F
:0700EE000812040B020011CF
:10033100E52760200526E526C394644017E4F526E9
:100341000524E524943C400CE4F524E525943C4047
:0503510003E4F5252284
:03000B000200F5FB
:1000F500C0E0C0F0C083C082C0D075D000C000C0D1
:0D01050001C002C003C004C005C006C00751
:10011200758CFC758A18051FE51F7002051EC394B5
:1001220014E51E94004009751E00751F001202732B
:100132000521E52170020520C39402E520940040C8
:10014200097520007521001203980523E52370022A
:100152000522C3940AE52294004009752200752302
:040162000012033153
:10016600D007D006D005D004D003D002D001D000ED
:0B017600D0D0D082D083D0F0D0E03297
:1003E000EF1FAC0670011E4C600A7D027CEFDCFE44
:0403F000DDFC80ECC4
:0103F40022E6
:1002EB000909000A0A0A0A0A0A0A0A0C123F065BE3
:0C02FB004F666D7D077F6F004001080119
:09040B00AE0574092FF8A60622C3
:10020D00E4F580EF14B40800505490022575F00306
:10021D00A4C58325F0C5837302023D02024102028B
:10022D004502024902024D02025502025D020265BB
:10023D00D2A4800ED2A48012D2A48016D2A4801A89
:10024D00C2A4D2A3D2A28016C2A4D2A3C2A2800EEF
:10025D00C2A4C2A3D2A28006C2A4C2A3C2A2741217
:06026D002DF8E6F58022E9
:1003980074092508F8E6FD7C00AF0812020D05086F
:0A03A800E508D3940840037508012E
:0103B2002228
:05041D00E4AF2BF52BFC
:0104220022B7
:1003CA00E4FF20B1010F20B0027F0220B2027F03B6
:0503DA0020B3027F04C6
:0103DF0022FB
:1002730085292A1203CA8F29E52AB40107E52970C3
:1002830003752B01E52AB40207E5297003752B02D8
:10029300E52AB40307E5297003752B03E52AB404A3
:0802A30007E5297003752B0427
:0102AB002230
:1003B3005389F0438901758A18758CFCC28DD28CE0
:0703C300D2A9D2AFC2B9229A
:09041400D2A0D2A1C2A0C2A12213
:07000300C2A0D2A1D2A0228D
:02030800AD073F
:10030A00E4FB7E007480A803088006CEA2E713CE21
:10031A0013D8F8FFEDF582EF558224FF92A0D2A1FF
:06032A00C2A10BBB08DCC0
:0103300022AA
:10037A00E4FFD2A0FED2A130A00DA80674800880A6
:0D038A0002C313D8FC4207C2A10EBE08E852
:010397002243
:0A040100EF24FF92A0D2A1C2A122B5
:0B03F500D2A0D2A1A2A0E433FFC2A15D
:0104000022D9
:100356008F2C8C2D8D2E1204147FA01203081203ED
:10036600F5AF2C1203081203F5AF2E120308120381
:04037600F502000389
:0202AC008F2C95
:1002AE001204147FA01203081203F5AF2C120308D8
:1002BE001203F51204147FA11203081203F51203A0
:0D02CE007A8F2D7F01120401120003AF2D65
:0102DB002200
:0300000002018179
:0C018100787FE4F6D8FD75812E0201C8DD
:10018D0002000EE493A3F8E493A34003F68001F27A
:10019D0008DFF48029E493A3F85407240CC8C33373
:1001AD00C4540F4420C8834004F456800146F6DF42
:1001BD00E4800B01020408102040809002DCE47EF4
:1001CD00019360BCA3FF543F30E509541FFEE49337
:1001DD00A360010ECF54C025E060A840B8E493A3FE
:1001ED00FAE493A3F8E493A3C8C582C8CAC583CA29
:1001FD00F0A3C8C582C8CAC583CADFE9DEE780BEE1
:0103070000F5
:00000001FF
