:100A0000543A0054483A00544C3A004F563A480081
:0A0A10004F563A4C00202020200031
:040B0A0002080000DD
:10046D00120AC47FE87E03120A8CE4FF1208858FFE
:10047D000F7F011208858F0AD3E50F648094FD501C
:10048D0016C3E50A64809449400DD3E50A6480F8EB
:10049D00E50F6480985006750F14750A0F120AA1A6
:1004AD007BFF7A0A79007D017F0112092D7BFF7A8E
:1004BD000A79037D017F0212092D7BFF7A0A7907E4
:1004CD007D097F0212092DE50FFB3395E0FA7519B1
:1004DD00037D047F0212076EE50AFB3395E0FA7582
:1004ED0019037D0C7F0212076E120A33120B048F53
:1004FD0010120AC41208B58F0E8E0D8D0C8C0BE4E4
:10050D00FFFEFDFCAB0EAA0DA90CA80B1201B450F9
:10051D001E7B2D7D037F01120AF1AF0EAE0DAD0CCA
:10052D00AC0B12022D8F148E138D128C1180157B36
:10053D002B7D037F01120AF1850E14850D13850C99
:10054D0012850B11AF14AE13AD12AC1112027CABB0
:10055D0007AA067519037D047F011209AA7B2E7D5A
:10056D00077F01120AF1E4FFFE7DC87C42AB14AA9D
:10057D0013A912A81112000E12027CE47B64FAF981
:10058D00F81203CD7519027D087F011209AAE51035
:10059D00700302063AB4010E050FD3E50F64809483
:1005AD00FD4003750F7DE510B40211150FD3E50A5B
:1005BD006480F8E50F6480985002050FE510B403D0
:1005CD0011050AC3E50F6480F8E50A6480984002BE
:1005DD00150AE510B4040E150AC3E50F648094499D
:1005ED005003750AC9E50FFB3395E0FA7519037DC4
:1005FD00047F0212076EE50AFB3395E0FA751903C5
:10060D007D0C7F0212076EE50FFD3395E0FCE4FFD4
:10061D001209097F057E00120A8CE50AFD3395E06B
:10062D00FC7F011209097F057E00120A8CAC0FECCC
:10063D00120248AB0EAA0DA90CA80B1201B4600A48
:10064D0040087BFF7A0A790B8019AC0AEC1202483C
:10065D00AB0EAA0DA90CA80B1201B450107BFF7A9A
:10066D000A79107D0D7F0112092D0204F97BFF7AA5
:0D067D000A79157D0D7F0112092D0204F987
:03000B00020716D3
:10071600C0E0C0F0C083C082C0D075D000C000C0A9
:0D07260001C002C003C004C005C006C0072A
:10073300758CFC758A180509E50970020508C394D0
:1007430014E508940040097508007509001207A80C
:10075300D007D006D005D004D003D002D001D000FA
:0B076300D0D0D082D083D0F0D0E032A4
:100A8C00EF1FAC0670011E4C600A7D027CEFDCFE91
:040A9C00DDFC80EC11
:010AA0002233
:0D0AC40012098C7FCC120A1A7F44020A1A14
:1008B50012098C7FCC120A1A7FBE120A1A1209C7B6
:1008C5008F151209C7EFFEE515FFFDAC06EC120208
:0B08D50043E4FBFA7980784102011730
:100909008F158C168D17120AFB7FA01208E0120AA8
:10091900D1AF151208E0120AD1AF171208E0120A76
:04092900D1020003F4
:020885008F15CD
:10088700120AFB7FA01208E0120AD1AF151208E086
:10089700120AD1120AFB7FA11208E0120AD112092B
:0D08A700508F167F01120ADD120003AF16FC
:0108B4002221
:090AFB00D2A0D2A1C2A0C2A12226
:07000300C2A0D2A1D2A0228D
:0208E000AD0762
:1008E200E4FB7E007480A803088006CEA2E713CE44
:1008F20013D8F8FFEDF582EF558224FF92A0D2A122
:06090200C2A10BBB08DCE2
:0109080022CC
:10095000E4FFD2A0FED2A130A00DA80674800880CA
:0D09600002C313D8FC4207C2A10EBE08E876
:01096D002267
:0A0ADD00EF24FF92A0D2A1C2A122D3
:0B0AD100D2A0D2A1A2A0E433FFC2A17A
:010ADC0022F7
:050B0400E4AF2CF52C0C
:010B090022C9
:100A4A00E4FF20B1010F20B0027F0220B2027F032F
:050A5A0020B3027F043F
:010A5F002274
:1007A800852A2B120A4A8F2AE52BB40107E52A70FD
:1007B80003752C01E52BB40207E52A7003752C029A
:1007C800E52BB40307E52A7003752C03E52BB40465
:0807D80007E52A7003752C04EB
:0107E00022F6
:060AB500C2A58F80D2A74C
:080ABB007F027EEFDEFEDFFC8E
:010AC3002210
:0A0AE700C2A6120AB5C2A7020ABB9C
:10096E00CFCDCFCECCCE12033C7C007D0A12033C01
:04097E00ED2430FF35
:0A098200D2A6120AB5C2A7020ABBF2
:100A6000AE07BE0104ED148006BE0209ED243F442A
:060A700080FF120AE722DC
:100AA1007F38120AE77F0C120AE77F06120AE77FF6
:040AB10001020AE74D
:0A0AF100AC03120A60AF0402098290
:06092D008B158A168917E4
:10093300120A60E4FDAB15AA16A9178D8275830010
:0C0943001202FDFF60061209820D80E91F
:01094F002285
:0C0852007F0AEA24FFFDE434FFFC7E0076
:08085E008E1C8F1D8C1E8D1FE6
:100866007F017E00E4FBEBC3951FE51E6480F874F0
:0E0876008098500AAC1CAD1D12032A0B80E8BE
:010884002251
:0409AA008A178B1805
:1009AE00120A60AA19EAD39400400D120852AC172D
:0809BE00AD1812096E1A80ED5C
:0109C600220E
:10076E00120A60C3EA64809480400B7F2B120982C8
:10077E008A1A8B1B800E7F2D120982C3E49BF51BF8
:10078E00E49AF51AAA19EAD39400400D120852AC55
:09079E001AAD1B12096E1A80ED60
:0107A700222F
:0407E1008A228B23BA
:1007E500120A60AA24EAD3940040297F1012085403
:1007F500AC22AD23CFCDCFCECCCE12033CEF540FE0
:10080500FEC3940AEE5004243080022437FF1209F7
:04081500821A80D1F2
:0108190022BC
:04081A008A278B2876
:10081E00120A60AA29EAD394004028EA24FFFDE4D4
:10082E0034FFFC7F027E0012085EAC27AD28CFCDD0
:10083E00CFCECCCE12033CEF54012430FF120982EE
:03084E001A80D23B
:010851002284
:10098C00C2AFD2B7C2B77FF7DFFED2B77F20DFFE90
:0D099C00A2B7E433FE7FF7DFFED2AFAF0657
:0109A900222B
:100A7600C2AFC2B77E04DEFEEF24FF92B77E18DE59
:050A8600FED2B7D2AF63
:010A8B002248
:1009E400C2AFC2B77F02DFFED2B77F02DFFEA2B77B
:0B09F400E433FE7F18DFFED2AFAF0639
:0109FF0022D5
:020A1A00AD0726
:100A1C00E4FCA8047401088002C333D8FC5DFF1207
:060A2C000A760CBC08EC88
:010A320022A1
:1009C700E4FDFC1209E4EF600DA80474010880023D
:0C09D700C333D8FC42050CBC08E9AF0596
:0109E30022F1
:100A33005389F0438901758A18758CFCC28DD28C59
:070A4300D2A9D2AFC2B92213
:10000E00EC4D6011E8497017ED33EC3304600DE4EC
:10001E00FCFFFEFD22E933E8330470F80202E81219
:10002E0002B358046009E4CC24815006285009021A
:10003E0002F22840030202EFC0E0EB4A7044B9809E
:10004E0006D0E0FB0202DEEF4E701CBD8008EBFF17
:10005E00EAFEE9FD80EBE98DF0A4FEE5F00200F783
:10006E00E9CDF9EAFEEBFFEF89F0A4FCE5F0CE89CD
:10007E00F0A42EFFE435F0CD89F0A42DFEE435F08A
:10008E008067EF4E7005BD80D780C3EF8BF0A4ACB8
:10009E00F0EE8BF0A42CFCE435F0F8EF8AF0A42CF3
:1000AE00E5F038FCE433CB8DF0A42CFCE5F03BF806
:1000BE00EE8AF0A42CFCE5F038F8E433CF89F0A4F6
:1000CE002CFCE5F038CF3400CE89F0A42FFFE5F0FC
:1000DE003EFEE433C98DF0A42EFEE5F039CD8AF054
:1000EE00A42FFFE5F03EFEE43DFD33D0E0FB5007CC
:1000FE000BBB000F0202F2EC2CFCEF33FFEE33FED3
:06010E00ED33FD0202CA00
:100114000202F2EC5D046005E8590470030202E88F
:100124001202B3580460F6EC4860F2EC7004FDFE71
:10013400FF22C860DB2481C85009C39860025006BE
:100144000202EF9850CAF582E9294B4A7005AB8246
:100154000202DE75F0007C1A7880C3EF9BEE9AED04
:1001640099400DC3EF9BFFEE9AFEED99FDE842F036
:10017400DC23ACF0D0E0FFD0E0FED0E0FDAB822089
:10018400E7101BEB60BAEC2CFCEF33FFEE33FEED13
:1001940033FD0202CAE803F830E705C0F075F00049
:1001A400EF2FFFEE33FEED33FD40B830E7C280AAF7
:1001B40074F8CC6480CCC86480C8F58204604FC3F2
:1001C400EB9FF5F0EA9E42F0E99D42F0E89C45F091
:1001D400603C501DE5825FFFE582D313CB5BCBF41B
:1001E4002B5582FB50280ABA002409B90020088044
:1001F4001DE5825BFBE582D313CF5FCFF4C3132FDE
:100204005582FF50090EBE00050DBD00010CC3EB65
:100214009FF5F0EA9E42F0E99D42F0E89C45F060CB
:0902240007CC4820E701B3EC22ED
:10022D00ED33EC33600A047003BD8004ECB2E7FCDF
:01023D00229E
:10023E0075F020800E75F010800575F0087D007E3B
:10024E00007F003392D530D50312045FEC3340109B
:10025E00EF33FFEE33FEED33FDEC33FCD5F0ED2244
:0E026E00E5F0247EA2D513CC92E7CDCEFF2280
:10027C00EDD2E7CD33EC3392D524814006E4FFFE7A
:10028C00FDFC22FCE4CFCECDCC24E0501174FF80D9
:10029C00EDC3CC13CCCD13CDCE13CECF13CF047076
:0702AC00F030D5DE02045F13
:1002B300E9D2E7C933E833F892D5EDD2E7CD33EC91
:0702C30033FC5002B2D5220A
:1002CA00EC30E7100FBF000C0EBE00080DBD000495
:1002DA000BEB6014A2D5EB13FCED92E7FD2274FF41
:1002EA00FCFDFEFF22E480F8A2D574FF13FC7D809A
:0302FA00E480EFAE
:0300000002068A6B
:0C068A00787FE4F6D8FD75812C0206D1C3
:1002FD00BB010CE58229F582E5833AF583E02250B6
:10030D0006E92582F8E622BBFE06E92582F8E222FF
:0D031D00E58229F582E5833AF583E4932219
:10032A00EF8DF0A4A8F0CF8CF0A428CE8DF0A42EE7
:02033A00FE22A1
:10033C00BC000BBE0029EF8DF084FFADF022E4CCA5
:10034C00F875F008EF2FFFEE33FEEC33FCEE9DEC6E
:10035C00984005FCEE9DFE0FD5F0E9E4CEFD22EDB4
:10036C00F8F5F0EE8420D21CFEADF075F008EF2FFE
:10037C00FFED33FD4007985006D5F0F222C398FDEF
:05038C000FD5F0EA228C
:1003910075F008758200EF2FFFEE33FECD33CDCC23
:1003A10033CCC58233C5829BED9AEC99E5829840A6
:1003B1000CF582EE9BFEED9AFDEC99FC0FD5F0D683
:1003C100E4CEFBE4CDFAE4CCF9A88222B800C1B9AD
:1003D1000059BA002DEC8BF084CFCECDFCE5F0CBEB
:1003E100F97818EF2FFFEE33FEED33FDEC33FCEB24
:1003F10033FB10D703994004EB99FB0FD8E5E4F9DF
:10040100FA227818EF2FFFEE33FEED33FDEC33FCCB
:10041100C933C910D7059BE99A4007EC9BFCE99ABF
:10042100F90FD8E0E4C9FAE4CCFB2275F010EF2F04
:10043100FFEE33FEED33FDCC33CCC833C810D70704
:100441009BEC9AE899400AED9BFDEC9AFCE899F83F
:0E0451000FD5F0DAE4CDFBE4CCFAE4C8F922D2
:0E045F00C3E49FFFE49EFEE49DFDE49CFC22AE
:1006960002046DE493A3F8E493A34003F68001F209
:1006A60008DFF48029E493A3F85407240CC8C33365
:1006B600C4540F4420C8834004F456800146F6DF34
:1006C600E4800B0102040810204080900B0AE47EAF
:1006D600019360BCA3FF543F30E509541FFEE49329
:1006E600A360010ECF54C025E060A840B8E493A3F0
:1006F600FAE493A3F8E493A3C8C582C8CAC583CA1B
:10070600F0A3C8C582C8CAC583CADFE9DEE780BED2
:010B0E0000E6
:00000001FF
